:020000040800F2
:1000000000500020DD1E0008251F0008251F0008E5
:10001000251F0008251F0008251F000800000000FC
:10002000000000000000000000000000251F000884
:10003000251F000800000000251F00081B120008F3
:10004000251F0008251F0008251F0008251F000880
:10005000251F0008251F00088D1D0008931D00089E
:10006000991D00089F1D0008A51D0008251F0008F8
:10007000251F0008251F0008251F0008251F000850
:10008000251F0008251F0008251F0008251F000840
:10009000251F0008251F0008251F0008AB1D0008AC
:1000A000251F00084D240008251F000861240008B2
:1000B00065240008792400088D240008251F000805
:1000C000251F0008251F0008251F0008251F000800
:1000D000251F0008A51C0008BD1C0008D51C000831
:1000E000C11D000829170008251F00080000000096
:1000F0000000000000000000000000000000000000
:0C01000000000000000000005FF808F1A3
:10010C00034613F8012B002AFBD1181A013870474B
:10011C0010B5054C237833B9044B13B10448AFF335
:10012C0000800123237010BD880000200000000017
:10013C008027000808B5034B1BB103490348AFF3F4
:10014C00008008BD000000008C0000208027000803
:10015C0070B505460C46084649B1FFF7D1FF2B6830
:10016C00024621462846BDE870405B68184770BDC2
:10017C0008B50421002001F0D1FE0421012001F07A
:10018C00CDFE0421012001F0C9FE0121112001F056
:10019C00C5FE06224FF41641034802F029F801224D
:1001AC00024B1A7008BD00BF2C020020A4000020D6
:1001BC0038B52D4C25786DB90121112001F0FCFECC
:1001CC00642001F01FFF1120294601F0F5FE642088
:1001DC0001F018FF4FF47A7001F014FF4FF47A70AD
:1001EC0001F010FF4FF47A7001F00CFF4FF47A70AD
:1001FC0001F008FF01F004FF1C4B18602378012B61
:10020C0031D14FF47A7001F0FDFE1949194802F012
:10021C009BFA18491848FFF79BFF4FF47A7001F0CE
:10022C00F1FE4FF47A7001F0EDFE1449114802F022
:10023C008BFA10491048FFF78BFF4FF47A7001F0DE
:10024C00E1FE4FF47A7001F0DDFE0D49094802F031
:10025C007BFA4FF47A7001F0D5FE06490648FFF799
:10026C0077FF0023237038BDA4000020C0000020BD
:10027C0098270008A50000202C020020AC270008BD
:10028C00C127000803460A4910B508680344EFF378
:10029C000882934205D90C224FF0FF30054B1A60AF
:1002AC0010BD054A054C121B9342F4D20B60F7E7C4
:1002BC00000000205C03002000500020000400001F
:1002CC007047000038B50E4B054618784FF47A731A
:1002DC00B3FBF0F30B4A1068B0FBF3F000F0A0F89E
:1002EC00044658B90F2D09D8024629464FF0FF3065
:1002FC0000F042F82046044B1D6038BD0120FCE79D
:10030C00040000202000002008000020074A08B547
:10031C001368032043F01003136000F01BF8002057
:10032C00FFF7D0FFFFF7CCFF002008BD00200240F4
:10033C00034A044B11681B780B441360704700BFD1
:10034C005803002004000020014B1868704700BFC0
:10035C005803002007490302CA6803F4E06322F43F
:10036C00E0621204120C134343F0BF6343F40033F6
:10037C00CB60704700ED00E0164B30B5DC68C4F381
:10038C000224C4F10703251D042B28BF0423062DCA
:10039C004FF0FF3598BF002405FA03F388BF033CE8
:1003AC0021EA0303A34005FA04F422EA040200281C
:1003BC0043EA0203ACBF00F16040074A4FEA031363
:1003CC00DBB2ABBF00F5614000F00F0080F80033EA
:1003DC00135430BD00ED00E014ED00E0002808DB04
:1003EC000123420900F01F0003FA00F0014B43F80F
:1003FC002200704700E100E000280DDB01224309D8
:10040C0000F01F0002FA00F0044A203342F82300E7
:10041C00BFF34F8FBFF36F8F704700BF00E100E059
:10042C000138B0F1807F0AD2F021064B064A5860A1
:10043C0082F823100020072298601A607047012070
:10044C00704700BF10E000E000ED00E0002809DB81
:10045C000122430900F01F0002FA00F0024A603347
:10046C0042F82300704700BF00E100E0704708B578
:10047C00FFF7FCFF08BD000008B590F82130022BF7
:10048C0003D004238363012008BD03681A6822F09B
:10049C000E021A601A6822F001021A60174A93427F
:1004AC001CD0143293421BD0143293421AD0143203
:1004BC0093421AD0143293421AD0143293420CBF86
:1004CC004FF480134FF080730D4A53604FF48073D8
:1004DC000384436B7BB198470020D5E70123F3E7F6
:1004EC001023F1E74FF48073EEE74FF48053EBE702
:1004FC004FF48033E8E71846C6E700BF0800024017
:10050C0000000240044A08B55169014202D0506112
:10051C0001F020FC08BD00BF000401402DE9F341AF
:10052C00054638B30368DB0710D42B689F075ED4ED
:10053C002B68190700F195802B685A0700F1BF80D2
:10054C00E869002840F02C81002029E08F4C63687A
:10055C0003F00C03042B07D0636803F00C03082B87
:10056C000AD16368DE0307D523689C03DDD56B686D
:10057C00002BDAD1012013E06B68B3F5803F12D168
:10058C00236843F480332360FFF7DEFE06462368BE
:10059C009803CAD4FFF7D8FE801B6428F7D9032030
:1005AC0002B0BDE8F0819BB9236823F4803323604B
:1005BC00236823F480232360FFF7C6FE06462368D6
:1005CC009903B2D5FFF7C0FE801B6428F7D9E6E784
:1005DC00B3F5A02F236803D143F480232360CFE726
:1005EC0023F480332360236823F48023CBE7674C08
:1005FC00636813F00C0F07D0636803F00C03082B2F
:10060C0010D16368DA030DD423689B0702D52B69DC
:10061C00012BAFD123686A6923F0F80343EAC203C4
:10062C00236085E72A695A4B6AB101221A60FFF7E9
:10063C008BFE064623689F07ECD4FFF785FE801BD4
:10064C000228F7D9ABE71A60FFF77EFE064623684F
:10065C0098077FF56DAFFFF777FE801B0228F6D960
:10066C009DE7AA69494E4B4BDAB101221A60FFF79C
:10067C006BFE0446736A9B070DD54FF4FA52464B3A
:10068C001B68B3FBF2F3019300BF019B5A1E01924E
:10069C00002BF9D150E7FFF757FE001B0228E9D9D0
:1006AC007DE71A60FFF750FE0446736A9F077FF5DB
:1006BC0043AFFFF749FE001B0228F6D96FE7334C16
:1006CC00E369D80024D40127E36943F08053E36144
:1006DC00E36903F080530093009B304E3368D905D7
:1006EC0018D5EB68012B26D1236A43F00103236252
:1006FC00FFF72AFE41F288380646236A9B073FD54E
:10070C00002F3FF41DAFE36923F08053E36117E73B
:10071C000027E2E7336843F480733360FFF714FE7D
:10072C0080463368DA05DCD4FFF70EFEA0EB080038
:10073C006428F6D933E7ABB9236A41F2883823F041
:10074C0001032362236A23F004032362FFF7FCFDF9
:10075C000646236A9807D3D5FFF7F6FD801B404564
:10076C00F7D91CE7052B236A03D143F0040323625A
:10077C00BAE723F001032362236A23F00403B6E7EC
:10078C00FFF7E2FD801B4045B7D908E70010024097
:10079C0000004242800442422000002000700040D1
:1007AC002A4B5A681C4602F00C02082A3DD0002342
:1007BC00274E022833602BD1FFF7C6FD074623686E
:1007CC0099011FD42B6AB3F5803F05D16268A968E3
:1007DC0022F400320A436260696A62680B4322F4B5
:1007EC0074121343636001233360FFF7ADFD0546BC
:1007FC0023689A013FF5A8AEFFF7A6FD401B02281F
:10080C00F6D9CCE6FFF7A0FDC01B0228D7D9C6E667
:10081C00FFF79AFD054623689B017FF595AEFFF720
:10082C0093FD401B0228F6D9B9E601283FF4B8AE77
:10083C005B682A6A03F4803191427FF49BAE6A6A4A
:10084C0003F4701393423FF47FAE93E60010024022
:10085C006000424230B5184B87B002AC03F1100572
:10086C00224618685968083303C2AB421446F7D1C4
:10087C0040F201231149ADF804304B6803F00C022F
:10088C00082A17D1C3F3834206A80244DB0312F8EB
:10089C00102C0CD54B680A48C3F34043504306AAAE
:1008AC00134413F8143CB0FBF3F007B030BD05480B
:1008BC005043FAE70248F8E7D0270008001002403E
:1008CC0000127A0000093D002DE9F0410D46044666
:1008DC0010B90120BDE8F081444A136803F0070306
:1008EC008B4228D321688E0730D4CA0743D43F4AA1
:1008FC00136803F00703AB4265D822683C4D12F035
:10090C00040F6CD1130706D56B68226923F460536E
:10091C0043EAC2036B60FFF79DFF6B68354AC3F374
:10092C000313D35CD840344B1860344B1868FFF772
:10093C00C9FC0020CEE7136823F007030B431360B8
:10094C00136803F007038B42C3D1CBE7284B11F09C
:10095C00040F1EBF5A6842F4E0625A60080742BF97
:10096C005A6842F460525A605A68A06822F0F00249
:10097C0002435A60B9E762681D4E012A33681AD1E6
:10098C0013F4003FA5D0736841F2883823F00303B9
:10099C0013437360FFF7D8FC07467368626803F073
:1009AC000C03B3EB820FA2D0FFF7CEFCC01B40456B
:1009BC00F3D903208EE7022A02D113F0007FE1E77E
:1009CC0013F0020FDEE7136823F007032B431360C9
:1009DC00136803F00703AB427FF47BAF8DE76B68C2
:1009EC00E16823F4E0630B436B608BE7002002406B
:1009FC00001002409428000820000020080000206D
:100A0C00044B054A5B68C3F30223D35C034A1068AA
:100A1C00D840704700100240A42800082000002095
:100A2C00044B054A5B68C3F3C223D35C034A1068CA
:100A3C00D840704700100240A42800082000002075
:100A4C0003682DE9F341D907054620D5354CE369F8
:100A5C00DA0032D40127E36943F08053E361E369A0
:100A6C0003F080530193019B2F4E3368DB0526D591
:100A7C00236A13F4407336D1236A6A6823F44073F3
:100A8C00134323621FB1E36923F08053E3612868A9
:100A9C00830706D52349AB684A6822F440421A43BF
:100AAC004A6010F010001BD01E4AE9685368002001
:100ABC0023F480030B43536012E00027D4E7336820
:100ACC0043F480733360FFF73FFC80463368D805EE
:100ADC00CED4FFF739FCA0EB08006428F6D903202C
:100AEC0002B0BDE8F0816A6802F440729A42C3D049
:100AFC0001200E4A236A1060002023F4407110601C
:100B0C002162D907B8D5FFF71FFC41F28838064699
:100B1C00236A9A07B0D4FFF717FC801B4045F7D91E
:100B2C00DDE700BF0010024000700040400442426C
:100B3C00036810B51A680446920708D55B689B07D2
:100B4C0005D500F0DFFD6FF0020223685A604FF408
:100B5C000032024B5A610123637410BD0004014042
:100B6C0070477047036810B51A69044691070ED593
:100B7C00DA6892070BD56FF002021A610122027734
:100B8C009B699B0777D001F055FC002323772368E2
:100B9C001A69500710D5DA6851070DD56FF00402A9
:100BAC001A61022222779B69204613F4407F68D099
:100BBC0001F040FC0023237723681A6912070FD534
:100BCC00DA6810070CD56FF008021A61042222773C
:100BDC00DB69204699075AD001F02CFC00232377BF
:100BEC0023681A69D20610D5DA68D0060DD56FF0D5
:100BFC0010021A6108222277DB69204613F4407F29
:100C0C004BD001F017FC0023237723681A69D10716
:100C1C0008D5DA68D20705D56FF0010220461A61B3
:100C2C0001F00CFC23681A69100608D5DA68110665
:100C3C0005D56FF0800220461A6100F088F8236811
:100C4C001A69520608D5DA68500605D56FF04002CD
:100C5C0020461A61FFF785FF23681A69910622D591
:100C6C00DA6892061FD56FF020022046BDE81040CE
:100C7C001A6100F06BB801F0DFFB2046FFF770FF44
:100C8C0083E701F0D9FB2046FFF76AFF92E701F0FA
:100C9C00D3FB2046FFF764FFA0E701F0CDFB204615
:100CAC00FFF75EFFAFE710BD1A4A036890420AD007
:100CBC00B0F1804F07D0A2F59432904203D002F5E8
:100CCC008062904215D14A6823F070031343114A95
:100CDC0090420AD0B0F1804F07D0A2F594329042E6
:100CEC0003D002F58062904203D1CA6823F44073AA
:100CFC0013434A6923F08003134303608B68C36278
:100D0C000B688362034B984204BF0B690363012396
:100D1C0043617047002C014010B50446A0B190F817
:100D2C003D3003F0FF021BB980F83C2000F0E4FDDD
:100D3C000223206884F83D30211DFFF7B5FF012305
:100D4C00002084F83D3010BD0120FCE7704770474F
:100D5C000368DA6822F49072DA605A6922F00102B0
:100D6C005A61202380F83A307047000038B50546A8
:100D7C000368C1681A69192422F440520A431A61A3
:100D8C0082680069D9680243686921F4B05121F086
:100D9C000C0102430A43DA605A69A96922F44072D1
:100DAC000A435A610D4A934214D1FFF739FE44436A
:100DBC006B6864229B00B4FBF3F4B4FBF2F102FB0E
:100DCC0011431B013233B3FBF2F3286803EB01131D
:100DDC00836038BDFFF714FEE9E700BF003801401F
:100DEC00704710B5044640B390F8393003F0FF0259
:100DFC001BB980F83820FFF7F3FF2423226884F80E
:100E0C003930D368204623F40053D360FFF7AEFF8C
:100E1C00236800201A6922F490421A615A6922F060
:100E2C002A025A61DA6842F40052DA602023E06345
:100E3C0084F8393084F83A3010BD0120FCE710B545
:100E4C00044660B390F8393003F0FF021BB980F808
:100E5C003820FFF7C5FF2423226884F83930D36883
:100E6C00204623F40053D360FFF780FF2368002053
:100E7C001A6922F490421A615A6922F022025A61CC
:100E8C005A6942F008025A61DA6842F40052DA6098
:100E9C002023E06384F8393084F83A3010BD012007
:100EAC00FCE790F83930202B18D1A9B1A2B190F8F9
:100EBC003830012B12D0C28400238284212201629B
:100ECC000168C36380F8383080F83920CA68184646
:100EDC0042F08002CA6070470120704702207047C0
:100EEC0090F83A30202B20D1E9B1E2B190F83830AB
:100EFC00012B1AD0C285828500232222C36380F87D
:100F0C003A20026880F838308162D168184641F482
:100F1C008071D160516941F001015161D16841F09A
:100F2C002001D1607047012070470220704710B536
:100F3C0090F83A30222B33D181680469B1F5805F87
:100F4C00836A026823D15268ECB9C2F3080223F811
:100F5C00022B8362C48D013CA4B2C4858CB9036896
:100F6C00DA6822F02002DA60DA6822F48072DA6041
:100F7C005A6922F001025A61202380F83A3000F0BD
:100F8C0037FE00200DE0D2B223F8012BE1E7591C0B
:100F9C00526881620CB91A70DCE702F07F02FAE742
:100FAC00022010BD036870B51A6804461607D9688C
:100FBC005D6907D1960659D58D0657D5BDE87040A9
:100FCC00FFF7B5BF05F0010001F4907505434DD056
:100FDC00D60705D5CD0542BFE36B43F00103E363B0
:100FEC00530704D518B1E36B43F00203E363960790
:100FFC0004D518B1E36B43F00403E363150704D580
:10100C0018B1E36B43F00803E363E36B4BB3900657
:10101C0004D5890602D52046FFF789FF23682046B0
:10102C005B69E56B03F0400305F008051D4319D01F
:10103C00FFF78EFE23685A6952060FD55A69606B0A
:10104C0022F040025A6148B1254B4363FFF714FA72
:10105C0038B1606BBDE87040436B1847204600F018
:10106C00DDFD70BD00F0DAFDE563FAE7160628D564
:10107C000D0626D594F83920212AF2D1A168226ACE
:10108C00B1F5805F18D11188C1F30801596021694D
:10109C0081B902322262E28C013A92B2E284002AD5
:1010AC00DFD1DA6822F08002DA60DA6842F04002BE
:1010BC00DA60D6E70132EDE7511C216212785A60F2
:1010CC00E9E75006CDD54A06CBD5DA68204622F0A2
:1010DC004002DA60202384F8393000F08CFDC0E740
:1010EC00F110000808B50023406AC385C38400F0E2
:1010FC0095FD08BD90F83830012B11D024230268DF
:10110C0080F83930D36823F00C0343F00803D36024
:10111C00202380F83930002380F838301846704787
:10112C000220704790F83830012B11D0242302682C
:10113C0080F83930D36823F00C0343F00403D360F8
:10114C00202380F83930002380F838301846704757
:10115C000220704790F8392090F83A0010437047FD
:10116C0086B0042841D8DFE800F003101C283400B6
:10117C001F4B20489A6942F004029A619B6903F064
:10118C0004030193019B06B07047194B1A489A69E6
:10119C0042F008029A619B6903F008030293029BD8
:1011AC00F1E7134B15489A6942F010029A619B695A
:1011BC0003F010030393039BE5E70D4B10489A696A
:1011CC0042F020029A619B6903F020030493049B74
:1011DC00D9E7074B0B489A6942F040029A619B6928
:1011EC0003F040030593059BCDE70020CBE700BF40
:1011FC000010024000080140000C014000100140AA
:10120C000014014000180140FFF79EB8704708B564
:10121C00FFF78EF8FFF72BF9FFF7F8FF08BD00007A
:10122C000B4BDA68D2015EBFDA6842F08072DA608A
:10123C000022084B5A601A6842F001021A6000BF83
:10124C0000BF00BF5868B0FA80F04009704700BF7B
:10125C00F0ED00E0001000E008B5FFF7E1FFFFF74C
:10126C0055F8BDE8084000F003BE70B50D0E4459AA
:10127C0091FAA1F3B3FA83F30F269B0006FA03F35A
:10128C0024EA030491FAA1F1B1FA81F1890002FA7E
:10129C0001F12143415170BD70B50D0E445991FAC5
:1012AC00A1F3B3FA83F304269B0006FA03F324EAB2
:1012BC00030491FAA1F1B1FA81F1890002FA01F16A
:1012CC002143415170BD431C04D00C3131F90C3C0D
:1012DC005A1C01D100207047834201F10C01F5D159
:1012EC0001207047B24B2DE9F74F00F00F0253F875
:1012FC0022B0431C06460D4601F00707C0F3031449
:10130C001FFA80F903D14721AA4800F00DFA2046B4
:10131C00FFF726FF012F0446DFF8A0824FEA1B6A75
:10132C0046D150F80A109BFAABF3B3FA83F30322BD
:10133C009B0002FA03F321EA03039BFAABF1B1FA27
:10134C0081F189008A401343012240F80A30594642
:10135C002046013FFFF789FF012F06D815F0080240
:10136C0018BF04225946FFF797FF54F80A10C5F32B
:10137C0001159BFAABF2B2FA82F39A000F23934059
:10138C000B409BFAABF2B2FA82F2012D4FEA8202C9
:10139C0023FA02F300F02381022D00F04F81082B79
:1013AC0040F03281042259462046FFF75EFF2BE1C4
:1013BC00032F00F20C81DFE817F010010400060087
:1013CC000E013A46C3E7D8F81830C5F3062243F0AD
:1013DC000103C8F81830D8F8183003F00103009353
:1013EC00009B531E232B2CD8DFE813F024002D0078
:1013FC0034003B00400047004C0053005800600094
:10140C0069006E0075007E0083008A0093009C00CA
:10141C00A100A800B100B600BD002B002B002B00D2
:10142C00C200C9002B002B002B002B00CE00D300D8
:10143C00DA00EA00604A536843F0E06343F00103CA
:10144C005360092283E75C4A536823F0010343F09D
:10145C00E063F5E7584A536843F0E06343F0020356
:10146C00EEE7554A536823F00203F0E7524A5368FB
:10147C0043F0E06343F00403E2E74F4A536823F080
:10148C000403E4E74C4A536843F0E06343F0080379
:10149C00D6E7494A536823F00803D8E746494B6816
:1014AC0043F0E06343F030034B6050E7424A53682B
:1014BC0023F0300343F0E06343F01003C0E73E4AEF
:1014CC00536823F03003C2E73B4A536843F0E063B0
:1014DC0043F0C003B4E7384A536823F0C00343F029
:1014EC00E06343F04003ABE7334A536823F0C00397
:1014FC00ADE7314A536843F0E06343F440739FE730
:10150C002D4A536823F4407343F0E06343F40073B3
:10151C0096E7294A536823F4407343F0E06343F49D
:10152C0080738DE7244A536823F440738FE7224A73
:10153C00536843F0E06343F4406381E71E4A536809
:10154C0023F4406343F0E06343F4006378E71A4A02
:10155C00536823F440637AE7174A536843F0E06317
:10156C0043F480536CE7144A536823F480536EE7BA
:10157C00114A536843F0E06343F4004360E70E4ABA
:10158C00536823F4004362E70B4A536823F0E0638B
:10159C0056E7094A536823F0E06343F080734FE742
:1015AC00054A536823F0E06343F0007348E700BF3B
:1015BC0054280008E12700080000014000100240F8
:1015CC002D4A536823F0E06343F0806338E77121C0
:1015DC002A4800F0A9F80022B9E60822B7E6042B45
:1015EC0004D1082259462046FFF73FFEE3684FEA34
:1015FC001B2223EA1B2B92FAA2F3B3FA83F20123E8
:10160C00934043EA0B03E360D8F8183043F001032E
:10161C00C8F81830D8F8183003F001030193019B77
:10162C00A9F10D03012B18D8134A536823F0E0637A
:10163C0043F08063536003B0BDE8F08F042B04D1FA
:10164C00082259462046FFF710FEE3684FEA1B229A
:10165C0023EA1B2392FAA2F2D5E70F2E04D0A9F1AC
:10166C001309B9F1010FE6D8034A536823F0E0637C
:10167C0043F00073DEE700BF00000140E1270008E3
:10168C00431C06D17047834202D18968FFF72ABEFA
:10169C000C31B1F900305A1CF5D19D21014800F0F4
:1016AC0043B800BFE1270008B1F900305A1C01D142
:1016BC0000207047834201D1486870470C31F3E732
:1016CC00431C01D0FFF7F0BF002070474B6813B9E3
:1016DC004FF0FF307047834202D1B1F900007047E0
:1016EC000C31F3E708B1FFF7F1BF4FF0FF30704753
:1016FC0003468B42084604D01BB100290CBF184688
:10170C0000207047034B1B6813B1034A106818473D
:10171C00704700BFC4000020DC0000200148FFF728
:10172C0007BA00BFC8000020FEE700000F4B1A6884
:10173C0042F001021A6059680D4A0A405A601A6850
:10174C0022F0847222F480321A601A6822F4802209
:10175C001A605A6822F4FE025A604FF41F029A6013
:10176C004FF00062034B9A60704700BF00100240BC
:10177C000000FFF800ED00E00438704703681D4AD4
:10178C0084B093420BD11C4B9A6942F400629A616B
:10179C009B6903F400630093009B04B07047B3F1A2
:1017AC00804F10D0154A934218D0154A9342F4D169
:1017BC00114BDA6942F00402DA61DB6903F00403CD
:1017CC000393039BE9E70C4BDA6942F00102DA61FF
:1017DC00DB6903F001030193019BDEE7064BDA6939
:1017EC0042F00202DA61DB6903F002030293029B0E
:1017FC00D3E700BF002C0140001002400004004061
:10180C00000800400368124A934206D102F5644274
:10181C00936923F4006393617047B3F1804F06D052
:10182C000C4A934209D00C4A93420BD070470B4A96
:10183C00D36923F00103D3617047084AD36923F0BD
:10184C000203F8E7054AD36923F00403F3E700BF6A
:10185C00002C014000040040000800400010024031
:10186C0008B5431C01460DD00D4B984212D00CD834
:10187C00B0F1804F10D0A3F5806398420ED0094888
:10188C00FFF752FF6FF00D0008BD074B9842F6D1E1
:10189C001920F9E71E20F7E71C20F5E71D20F3E7D8
:1018AC0000080040AC280008002C014008B5431C7F
:1018BC0001460DD00D4B984212D00CD8B0F1804F90
:1018CC0010D0A3F5806398420ED00948FFF72CFF87
:1018DC006FF00D0008BD074B9842F6D11B20F9E7BD
:1018EC001E20F7E71C20F5E71D20F3E70008004059
:1018FC00AC280008002C014038B50446FFF73EFF29
:10190C000068FFF7ADFFD4E91012FEF735FD206833
:10191C00FFF7A6FFFEF762FD2068FFF7C7FF05463D
:10192C002068FFF79DFF85420DD02068FFF7BEFFB2
:10193C00D4E91012FEF720FD2068FFF7B7FFBDE8D1
:10194C003840FEF74BBD38BD2DE9FF4704468946AC
:10195C00B0F94C00484990461F46DDF830A0FFF71F
:10196C00AFFE46490546B4F94E00FFF7A9FE064600
:10197C00002D7ED0B4F94E30013301D0002878D040
:10198C0031462846FFF7B4FE2060002871D03C4B4E
:10199C00984238D103F55843DA6842F48042DA6051
:1019AC00DA6822F48042DA609A6942F480429A61E1
:1019BC009B6903F480430193019B2523A4F85030C9
:1019CC002D49B4F94C00FFF75BFE26B12B49B4F955
:1019DC004E00FFF755FE94F851202A4B201D43F87A
:1019EC00220023680C22C4E901390023C4E9038ACC
:1019FC00C4E9062367612362002E35D104B0BDE82B
:101A0C00F047FFF71CBA204B984215D103F5E6338B
:101A1C001A6942F400321A611A6922F400321A610E
:101A2C00DA6942F40032DA61DB6903F400330293C1
:101A3C00029B4FF49373C1E7144B9842C0D1144DE1
:101A4C002B6943F480232B612B6923F480232B61B6
:101A5C00EB6943F48023EB61EB6903F4802303937C
:101A6C00039B40F22723A9E704B0BDE8F047FFF73A
:101A7C00B8B904B0BDE8F087382A0008FC29000882
:101A8C0000380140E00000200044004000480040C5
:101A9C000010024008B1FFF757BF704708B5074B5D
:101AAC0090F8512053F82200FFF754FB00F022006D
:101ABC00A0F122035842584108BD00BFE0000020AD
:101ACC0008B5074B90F8512053F82200FFF742FB62
:101ADC0000F02100A0F121035842584108BD00BF7D
:101AEC00E000002070B50E46054610B94FF0FF30EF
:101AFC0070BDFFF7D3FF04460028F7D1294611F833
:101B0C00523F0122337095F85100034B53F82000DB
:101B1C00FFF7E6F92046EBE7E000002070B50E4633
:101B2C000446F0B1FFF7BAFF0546D0B994F950005E
:101B3C006664FEF761FC94F851000A4B04F1520103
:101B4C00012253F82000FFF7CBF994F950002A46F4
:101B5C000121FEF711FC94F95000BDE87040FEF72E
:101B6C003DBC70BDE000002010B50446E8B18164B6
:101B7C0090F95000FEF740FCB4F86230A16D9BB2B6
:101B8C0094F851001944094B012253F82000FFF737
:101B9C0088F994F9500000220121FEF7EDFB94F92D
:101BAC005000BDE81040FEF719BC10BDE00000204D
:101BBC0050B1B0F94E30013306D190F85120034B9F
:101BCC0053F82200FFF796BA704700BFE0000020E0
:101BDC0050B1B0F94E30013306D190F85120034B7F
:101BEC0053F82200FFF79EBA704700BFE0000020B8
:101BFC00036C0438184710B5436C044604389847F6
:101C0C0001300AD0B4F85E30616D9BB22046BDE85D
:101C1C00104001221944FFF744B910BD1FB50368E9
:101C2C000446186810F0010013D0002200921A68C4
:101C3C0000925B680093009B201FFFF72FFF40BBB7
:101C4C000122204604F14E0104B0BDE81040FFF71C
:101C5C0047B9196811F0020106D001901A68019277
:101C6C005B680193019BE7E71A6812F0040206D047
:101C7C0002911A6802925B680293029BDCE7196876
:101C8C000907D9D503921A6803925B680393039BE7
:101C9C00D2E704B010BD000008B52520FEF7D6FB36
:101CAC00024B1868BDE80840FFF77CB9E000002043
:101CBC0008B52620FEF7CAFB024B5868BDE8084061
:101CCC00FFF770B9E0000020272008B5FEF7BEFB37
:101CDC00034B986818B1BDE80840FFF763B908BD1D
:101CEC00E0000020F8B514490646FFF7E9FC00F0C7
:101CFC002BFB124C054654F8203073B90E49304674
:101D0C00FFF7DEFC07466C2000F02CFC064639463B
:101D1C0000F036FB54F825301E6054F825301C6852
:101D2C0044B1204600F072FB2046BDE8F8406C211F
:101D3C0000F01ABCF8BD00BFC42800082C0300201A
:101D4C00836810B5044613B1032201469847204618
:101D5C0010BD00000023012803F1010202D013463C
:101D6C004008F8E71421DBB24B43044A181D104419
:101D7C00816811B11A44136918477047EC000020B0
:101D8C000120FEF7BFBB0220FEF7BCBB0420FEF710
:101D9C00B9BB0820FEF7B6BB1020FEF7B3BB38B5B5
:101DAC0005242025A8B2FEF7ADFB013C4FEA450502
:101DBC00F8D138BD38B506244FF48065A8B2FEF7CB
:101DCC00A1FB013C4FEA4505F8D138BD0721204B5A
:101DDC0006221975082183F82810092183F83C1074
:101DEC000A2183F8501017211A7083F8641000220E
:101DFC0083F8781083F88C1083F8A01083F8B41053
:101E0C002821DA601A625A639A64DA651A67C3F891
:101E1C008420C3F89820C3F8AC20C3F8C02083F802
:101E2C00C810C3F8D42083F8DC10C3F8E82083F87A
:101E3C00F010C3F8FC2083F80411C3F8102183F8C8
:101E4C001811C3F8242183F82C11C3F838217047DA
:101E5C00EC00002038B5054CA4F5A075143C201DF1
:101E6C00FFF76EFFAC42F9D138BD00BF2C02002049
:101E7C0010B54FF480330122022494B00021CDE937
:101E8C000A23CDE911434FF4E0130AA80C910E92EA
:101E9C001393FEF743FB00B1FEE70F23CDE90534A6
:101EAC004FF480630790CDE90830214605A8FEF772
:101EBC000BFD00B1FEE7122301934FF40043CDE973
:101ECC00033001A8FEF7BCFD00B1FEE714B010BD55
:101EDC00002103E00B4B5B58435004310A480B4B79
:101EEC0042189A42F6D30A4A02E0002342F8043B15
:101EFC00084B9A42F9D3FFF719FC00F03BFB00F0BA
:101F0C0021FB7047A42C0008000000208800002052
:101F1C00880000206C030020FEE7000022282DE939
:101F2C00F0410E463DD8204B33F91040621C38D09E
:101F3C001E4DC4F3031755F8273004F00F0823FA8D
:101F4C0008F3DB0710D520461949FFF7BCF910B18F
:101F5C002046FFF7C7FE012303FA08F255F8273095
:101F6C0023EA020345F82730052E14D8DFE806F0E3
:101F7C00030F090B0D1100212046BDE8F041FFF7BE
:101F8C00B1B91021F8E72021F6E70321F4E701218C
:101F9C00F2E70921F0E74921BDE8F0410548FFF7D8
:101FAC00C3BBBDE8F08100BF742A00083C030020CD
:101FBC00C4280008BA2A000822288EBF4FF0FF332D
:101FCC000C4B33F91030C3F30312042A98BF0A48A0
:101FDC0003F00F0398BF50F82220084888BF002256
:101FEC0050F82330C3F30F2309B1136170475361C9
:101FFC00704700BF742A00080C0000205428000809
:10200C00FFF702B938B5044648B1FFF7FDF80546AD
:10201C0000F0AEFAFFF7F8F8431BA342F8D338BD33
:10202C00B0F86230013303F03F03A0F86230B0F82F
:10203C006230B0F85E009BB298424FF0FF3018BF90
:10204C0000207047B0F8F430B0F8F000181A00F027
:10205C003F007047B0F8F430B0F8F0209BB29342D8
:10206C001ABFD0F8E830985C4FF0FF30704713B5CA
:10207C000DF107010446FFF735FD90B9B4F8603057
:10208C00B4F85C20013303F03F03934209D0B4F859
:10209C0060209DF80700616D92B29BB28854A4F841
:1020AC00603002B010BD0000012370B50374B0F9AC
:1020BC00E230044601330E4600F1940508D190F845
:1020CC00F8302BB1002380F8F8302846FFF770FD6C
:1020DC00B4F8F2104B1C03F03F03B4F8F62092B2A4
:1020EC009342FAD0D4F8EC2028465654A4F8F23097
:1020FC00FFF7E6FC18B928460249FFF735FD012029
:10210C0070BD00BF2D200008037C33B1B0F8F22065
:10211C00B0F8F6309BB29A42FAD1704700F1110335
:10212C00914208BF4FF0FF31C0F8E8300023A0F80F
:10213C00E02000F15102A0F8F430C0E93B23A0F8F4
:10214C00E210A0F8F630704770B54FF47A7316466B
:10215C000022C0E90123164B044603604FF6FF73BF
:10216C00A0F8E230134B0D46984213D1124B9A8AC9
:10217C00A0F8E220DB8AA0F8E0301EB14FF6FF7326
:10218C00A4F8E2302046B4F9E020B4F9E210FFF7ED
:10219C00C5FF70BD09492846FFF7A4FA0849A4F801
:1021AC00E2002846FFF79EFAA4F8E000E5E700BF3E
:1021BC00A02B00082C020020742A0008FC2900081F
:1021CC00382A0008B0F9E23010B5013304460ED1BC
:1021DC0003685B69984794F8F83043B9012304F11C
:1021EC00940084F8F830BDE81040FFF7F1BC10BD46
:1021FC0002F00703023BDBB2042B2DE9F7430E463A
:10220C00C0F8FC1096BF1E490024CC5C02F03003D1
:10221C00302B054680F8F92026D14FF4C0670134E5
:10222C0012F0080F14BF4FF400594FF00009082C9E
:10223C0021D0092C21D04FF4C1711248FFF774FA48
:10224C0005F1940831463B4622464046CDF80090B5
:10225C00FFF720FC2846FFF7B5FF40460A4903B0BC
:10226C00BDE8F043FFF75ABC12F020071CBF4FF437
:10227C0080670134D4E70024E2E74FF48054DFE7B1
:10228C00902B0008242B00087B20000810B5044676
:10229C00FFF798FFB4F8F420B4F8F03092B29A42F9
:1022AC0017BFD4F8E8204FF0FF30D05C01331CBFCF
:1022BC0003F03F03A4F8F03010BD000000220249E7
:1022CC000248FFF741BF00BF003801402C0200203C
:1022DC0010B5044620B940F2CB310648FFF724FA7A
:1022EC002046FFF749FA0068436D13B1BDE8104072
:1022FC00184710BDC02B000870B5054620B940F238
:10230C00DE311048FFF710FA2B7F013B072B17D853
:10231C00DFE803F0140416101616161202242846D1
:10232C00FFF72AFA006800EB8404636D43B1BDE843
:10233C00704018470324F2E70424F0E70124EEE789
:10234C0070BD00BFC02B00080B4B98420ED0B0F1F3
:10235C00804F0DD0A3F5943398420BD04FF6FF73FA
:10236C00064A904214BF184603207047002070475D
:10237C000120704702207047002C014000080040EB
:10238C0070B5044608460D46FFF7DEFF4FF6FF73A7
:10239C009842064603D132211A48FFF7C5F91A4B69
:1023AC0004F1080243F82620E5600E23002504F111
:1023BC000C063046C4E91335C4E90B55C4E90D5578
:1023CC00C4E90F5584F82850656484F8485084F8A3
:1023DC004950A460FFF7D2F94FF6FF733046C4E9B9
:1023EC001555C4E91755C4E91955C4E90055C4E994
:1023FC000553C4E9075525616562FEF78DFC20463F
:10240C0070BD00BFC02B00082C030020014638B55E
:10241C00044651F80C0FFFF797FF05460846FFF7E7
:10242C00F1F90022024B204643F8252038BD00BFAD
:10243C002C030020FFF760BFFFF75EBFFFF748BF1C
:10244C00034B186810B10430FEF78CBB704700BF0B
:10245C002C030020FFF7F4BF034B586810B1043075
:10246C00FEF780BB704700BF2C030020034B98681D
:10247C0010B10430FEF776BB704700BF2C03002070
:10248C00034BD86810B10430FEF76CBB704700BF2B
:10249C002C030020F8B505460E4617460024BC4216
:1024AC0007D02B6828461B68315D984708B101346A
:1024BC00F5E72046F8BD10B50446FFF7A1FDE06036
:1024CC0023682046DB689847002808DAFFF798FD58
:1024DC00E368C01AA3689842F2D34FF0FF3010BDE6
:1024EC00F8B506460D4617460024BC4207D03046C8
:1024FC00FFF7E1FF031E02DB2B550134F5E7204605
:10250C00F8BD2DE9F0410746884616461D4673B1C5
:10251C0000243846FFF7CFFF031E05DB434503D0ED
:10252C0033550134A542F4D12046BDE8F0811C4658
:10253C00FAE7704708B50320FDF70CFFBDE808402B
:10254C0000F014B808B5FFF7F4FFFDF711FE044CCA
:10255C00FDF72EFE002CFBD0AFF30080F8E700BF98
:10256C000000000000F02AB800F030B8FEF774BE8E
:10257C007047000070B500260C4D0D4C641BA41068
:10258C00A64209D100F0F6F800260A4D0A4C641B4D
:10259C00A410A64205D170BD55F8043B98470136EE
:1025AC00EEE755F8043B98470136F2E78C2C00080F
:1025BC008C2C00088C2C00089C2C0008024B01462B
:1025CC00186800F057B800BF24000020024B0146E9
:1025DC00186800F003B800BF2400002038B5054689
:1025EC00002943D051F8043C0C1F002BB8BFE41851
:1025FC0000F0B4F81E4A1368104633B963601460D7
:10260C002846BDE8384000F0AFB8A3420AD921688B
:10261C006218934201BF1A685B68521822606360AB
:10262C000460EDE71A465B680BB1A342FAD9116856
:10263C005018A0420BD120680144501883421160FD
:10264C00DED118685B68014411605360D8E702D989
:10265C000C232B60D4E7206821188B4201BF19682A
:10266C005B680918216063605460C9E738BD00BF1E
:10267C0050030020F8B5CD1C25F0030508350C2DB2
:10268C0038BF0C25002D064601DBA94203D90C23CB
:10269C0033600020F8BD00F061F821490A68144647
:1026AC009CB9204F3B6823B92146304600F03CF8DA
:1026BC0038602946304600F037F8431C23D10C23F0
:1026CC003046336000F050F8E3E723685B1B17D407
:1026DC000B2B03D923601C44256004E06368A242E1
:1026EC000CBF0B605360304600F03EF804F10B0059
:1026FC00231D20F00700C21ACCD01B1AA350C9E727
:10270C0022466468CCE7C41C24F00304A042E3D046
:10271C00211A304600F008F80130DDD1CFE700BFB8
:10272C00500300205403002038B50023054D044607
:10273C0008462B60FDF7A6FD431C02D12B6803B1A4
:10274C00236038BD5C030020034611F8012B03F80D
:10275C00012B002AF9D17047704770470148FFF7E9
:10276C00FBBF00BF640300200148FFF7F6BF00BFAA
:10277C0064030020F8B500BFF8BC08BC9E46704747
:0C278C00F8B500BFF8BC08BC9E467047C2
:1027980041542B4E414D453D4545475F424F4152BF
:1027A800440D0A0041542B554152543D31313532C4
:1027B80030302C312C300D0A0041542B50535744E3
:1027C8003D313132320D0A000203040506070809BB
:1027D8000A0B0C0D0E0F101000433A5C557365720E
:1027E800735C41646D696E5C417070446174615CD6
:1027F8004C6F63616C5C41726475696E6F31355CF6
:102808007061636B616765735C53544D33325C6808
:10281800617264776172655C73746D33325C312EFA
:10282800382E305C6C69627261726965735C5372D0
:1028380063577261707065725C7372635C73746DF8
:1028480033325C70696E6D61702E630001010000A7
:102858000202000004040000080800001010000034
:10286800202000004040000080800000010001049A
:102878000200020404000404080008041000100404
:102888002000200440004004800080040000000074
:102898000000000001020304060708090000000008
:1028A8000102030454494D3A20556E6B6E6F776EE2
:1028B8002074696D6572204952516E000000000055
:1028C80000000040128000000100000000000040ED
:1028D8001200010002000000000000401280010008
:1028E8000300000000000040120002000600000083
:1028F80000040040128000000700000000040040AF
:102908001200010008000000002C014012800000A5
:1029180009000000002C0140120001000A0000001C
:10292800002C0140128001000B000000002C014027
:10293800120002000F00000000000040128F00008B
:102948001000000000040040128001001100000087
:1029580000040040120002001300000000000040C4
:10296800120F01001400000000040040129400003F
:1029780015000000000400401214010016000000B9
:102988000008004012800000170000000008004006
:102998001200010018000000000800401280010029
:1029A8001900000000080040120002001A00000090
:1029B80000000040128F01001B00000000000040D2
:1029C800120F02001D000000002C014012801000B0
:1029D8001E000000002C0140120011001F00000022
:1029E800002C014012801100FFFF000000000000D1
:1029F8000000000003000000004400401000000038
:102A08000A00000000380140100000001700000014
:102A180000380140100500001B000000004800407D
:102A280010000000FFFF0000000000000000000090
:102A380002000000004400401200000009000000ED
:102A48000038014012000000160000000038014064
:102A5800120500001A0000000048004012000000A3
:102A6800FFFF00000000000000000000190018002F
:102A7800170016001500140013000F000C000B00BF
:102A88000A00090008001F001E001D001C002D0080
:102A98002E002F00000001000200030004000500C2
:102AA80006000700100011001A001B0012000D009C
:102AB8000E00433A5C55736572735C41646D696ED0
:102AC8005C417070446174615C4C6F63616C5C4123
:102AD800726475696E6F31355C7061636B616765CF
:102AE800735C53544D33325C68617264776172650C
:102AF8005C73746D33325C312E382E305C636F72C8
:102B080065735C61726475696E6F5C776972696E12
:102B1800675F6469676974616C2E6300433A5C554A
:102B2800736572735C41646D696E5C417070446179
:102B380074615C4C6F63616C5C41726475696E6F43
:102B480031355C7061636B616765735C53544D33F9
:102B5800325C68617264776172655C73746D33327C
:102B68005C312E382E305C636F7265735C61726401
:102B780075696E6F5C4861726477617265536572DE
:102B880069616C2E63707000060007000800000081
:102B98000000000000000000B5200008A124000883
:102BA800512000089922000861200008152100081A
:102BB800ED2400080F250008433A5C5573657273CD
:102BC8005C41646D696E5C417070446174615C4C19
:102BD8006F63616C5C41726475696E6F31355C70EE
:102BE80061636B616765735C53544D33325C686134
:102BF8007264776172655C73746D33325C312E3840
:102C08002E305C636F7265735C61726475696E6F98
:102C18005C486172647761726554696D65722E6390
:102C280070700000000000000000000000000000BC
:102C3800000000000000000000000000000000008C
:102C4800000000000000000000000000000000007C
:102C5800000000000000000000000000000000006C
:102C6800000000000000000000000000000000005C
:102C7800000000000000000000000000000000004C
:042C88000000000048
:102C8C004125000841010008D91D0008C92200088F
:082C9C001D010008611E000883
:102CA4007003002001000000100000000008014033
:102CB400000C0140001001400014014000180140C4
:102CC4000024F40028000020000000004C2C000820
:102CD4006C2C00082C2C00080000000000000000F0
:102CE40000000000000000000000000000000000E0
:102CF40000000000000000000000000000000000D0
:102D040000000000000000000000000000000000BF
:102D140000000000000000000000000000000000AF
:082D24000000000000000000A7
:0400000508001EDDF4
:00000001FF
